{
  "transactions": [
    {
      "hash": "0x93903fd3433c731a7173f3a2679577560a7a655795f5ed27318899c74e803f63",
      "transactionType": "CALL",
      "contractName": null,
      "contractAddress": "0x422b25c12aecdbdaf94cb16836b9c3fc0519eb40",
      "function": "uploadVideo(string,string,string)",
      "arguments": [
        "Big Buck Bunny - Open Movie",
        "QmYwAPJzv5CZsnA625s3Xf2nemtYgPpHdWEz79ojWnPbdG",
        "QmSgvgwxZGaBLqkGyWemEDqikCqU52XxsYLKtdy3vGZ8uq"
      ],
      "transaction": {
        "from": "0xfe2c7703feceb487abdbfdd8cc50403526d45b0d",
        "to": "0x422b25c12aecdbdaf94cb16836b9c3fc0519eb40",
        "gas": "0x504f8",
        "value": "0x0",
        "input": "0x4875e9fd000000000000000000000000000000000000000000000000000000000000006000000000000000000000000000000000000000000000000000000000000000a00000000000000000000000000000000000000000000000000000000000000100000000000000000000000000000000000000000000000000000000000000001b426967204275636b2042756e6e79202d204f70656e204d6f7669650000000000000000000000000000000000000000000000000000000000000000000000002e516d597741504a7a7635435a736e4136323573335866326e656d7459675070486457457a37396f6a576e50626447000000000000000000000000000000000000000000000000000000000000000000000000000000000000000000000000002e516d5367766777785a4761424c716b477957656d454471696b4371553532587873594c4b7464793376475a387571000000000000000000000000000000000000",
        "nonce": "0x11",
        "chainId": "0x14a34"
      },
      "additionalContracts": [],
      "isFixedGasLimit": false
    },
    {
      "hash": "0x8c6292efd2db41c961bd8399f81d644cb55a980b666d655ef5f38ce491b6809a",
      "transactionType": "CALL",
      "contractName": null,
      "contractAddress": "0x422b25c12aecdbdaf94cb16836b9c3fc0519eb40",
      "function": "uploadVideo(string,string,string)",
      "arguments": [
        "Sintel - Open Movie Trailer",
        "QmQqzMTavQgT4f4T5v6PWBp7XNKtoPmC9jvn12WPT3gkSE",
        "Qmd286K6pohQcTKYqnS1YhWMscYjDyr712CGXDnUxAwzjg"
      ],
      "transaction": {
        "from": "0xfe2c7703feceb487abdbfdd8cc50403526d45b0d",
        "to": "0x422b25c12aecdbdaf94cb16836b9c3fc0519eb40",
        "gas": "0x504f8",
        "value": "0x0",
        "input": "0x4875e9fd000000000000000000000000000000000000000000000000000000000000006000000000000000000000000000000000000000000000000000000000000000a00000000000000000000000000000000000000000000000000000000000000100000000000000000000000000000000000000000000000000000000000000001b53696e74656c202d204f70656e204d6f76696520547261696c65720000000000000000000000000000000000000000000000000000000000000000000000002e516d51717a4d546176516754346634543576365057427037584e4b746f506d43396a766e313257505433676b5345000000000000000000000000000000000000000000000000000000000000000000000000000000000000000000000000002e516d643238364b36706f685163544b59716e53315968574d7363596a447972373132434758446e557841777a6a67000000000000000000000000000000000000",
        "nonce": "0x12",
        "chainId": "0x14a34"
      },
      "additionalContracts": [],
      "isFixedGasLimit": false
    }
  ],
  "receipts": [
    {
      "status": "0x1",
      "cumulativeGasUsed": "0x16320e",
      "logs": [
        {
          "address": "0x422b25c12aecdbdaf94cb16836b9c3fc0519eb40",
          "topics": [
            "0x914131121ce37b9b876b9e7ff21f008ec2799db04096a542b4b7e67f80af1d13",
            "0x0000000000000000000000000000000000000000000000000000000000000002",
            "0x000000000000000000000000fe2c7703feceb487abdbfdd8cc50403526d45b0d"
          ],
          "data": "0x0000000000000000000000000000000000000000000000000000000000000020000000000000000000000000000000000000000000000000000000000000001b426967204275636b2042756e6e79202d204f70656e204d6f7669650000000000",
          "blockHash": "0x24c4c4232fc2562e2b8afd85605c973e7c74d9ba46d0911c508e9ebcd2118d70",
          "blockNumber": "0x2277e92",
          "blockTimestamp": "0x69625c04",
          "transactionHash": "0x93903fd3433c731a7173f3a2679577560a7a655795f5ed27318899c74e803f63",
          "transactionIndex": "0xb",
          "logIndex": "0x9",
          "removed": false
        }
      ],
      "logsBloom": "0x04000080000000000000000000000000020000000000000000000000000000000000000000000000000000000000000000000000000000000000000000000000000000000000010000000000000000000000000000000000000000000000000000000000000000000000000000000000000000000000000000000000000000800000000010000000400000000000000000000000000000000000000000000000000000000000000000000100000000000000000000000000000000000000000000000001000000000100000000000000000000000000000000000000040000000000000000000000000000000000000000000000008000000000000000000000",
      "type": "0x2",
      "transactionHash": "0x93903fd3433c731a7173f3a2679577560a7a655795f5ed27318899c74e803f63",
      "transactionIndex": "0xb",
      "blockHash": "0x24c4c4232fc2562e2b8afd85605c973e7c74d9ba46d0911c508e9ebcd2118d70",
      "blockNumber": "0x2277e92",
      "gasUsed": "0x3a24c",
      "effectiveGasPrice": "0x124f80",
      "blobGasUsed": "0xf018",
      "from": "0xfe2c7703feceb487abdbfdd8cc50403526d45b0d",
      "to": "0x422b25c12aecdbdaf94cb16836b9c3fc0519eb40",
      "contractAddress": null,
      "daFootprintGasScalar": "0x138",
      "l1BaseFeeScalar": "0x44d",
      "l1BlobBaseFee": "0x71b3",
      "l1BlobBaseFeeScalar": "0xa118b",
      "l1Fee": "0x427003",
      "l1GasPrice": "0x7350d",
      "l1GasUsed": "0xc57"
    },
    {
      "status": "0x1",
      "cumulativeGasUsed": "0x19d45a",
      "logs": [
        {
          "address": "0x422b25c12aecdbdaf94cb16836b9c3fc0519eb40",
          "topics": [
            "0x914131121ce37b9b876b9e7ff21f008ec2799db04096a542b4b7e67f80af1d13",
            "0x0000000000000000000000000000000000000000000000000000000000000003",
            "0x000000000000000000000000fe2c7703feceb487abdbfdd8cc50403526d45b0d"
          ],
          "data": "0x0000000000000000000000000000000000000000000000000000000000000020000000000000000000000000000000000000000000000000000000000000001b53696e74656c202d204f70656e204d6f76696520547261696c65720000000000",
          "blockHash": "0x24c4c4232fc2562e2b8afd85605c973e7c74d9ba46d0911c508e9ebcd2118d70",
          "blockNumber": "0x2277e92",
          "blockTimestamp": "0x69625c04",
          "transactionHash": "0x8c6292efd2db41c961bd8399f81d644cb55a980b666d655ef5f38ce491b6809a",
          "transactionIndex": "0xc",
          "logIndex": "0xa",
          "removed": false
        }
      ],
      "logsBloom": "0x00000080000000000000000000000000020000000000000000000000000000000000000000000000000000000000000000000000020000000000000000000000000000000000010000000000000000000000000000000000000000000000000000000000000000000000000000000000000000000000000000000000000000800000000010000000400000000000000000000000000000000000000000000000000000000000000000000000000000000000000000800000000000000000400000000001000000000100000000000000000000000000000000000000040000000000000000000000000000000000000000000000000000000000000000000000",
      "type": "0x2",
      "transactionHash": "0x8c6292efd2db41c961bd8399f81d644cb55a980b666d655ef5f38ce491b6809a",
      "transactionIndex": "0xc",
      "blockHash": "0x24c4c4232fc2562e2b8afd85605c973e7c74d9ba46d0911c508e9ebcd2118d70",
      "blockNumber": "0x2277e92",
      "gasUsed": "0x3a24c",
      "effectiveGasPrice": "0x124f80",
      "blobGasUsed": "0xf018",
      "from": "0xfe2c7703feceb487abdbfdd8cc50403526d45b0d",
      "to": "0x422b25c12aecdbdaf94cb16836b9c3fc0519eb40",
      "contractAddress": null,
      "daFootprintGasScalar": "0x138",
      "l1BaseFeeScalar": "0x44d",
      "l1BlobBaseFee": "0x71b3",
      "l1BlobBaseFeeScalar": "0xa118b",
      "l1Fee": "0x427003",
      "l1GasPrice": "0x7350d",
      "l1GasUsed": "0xc57"
    }
  ],
  "libraries": [],
  "pending": [],
  "returns": {},
  "timestamp": 1768053762,
  "chain": 84532,
  "commit": "51e7c75"
}