{
  "transactions": [
    {
      "hash": "0xca2c987783a92b860853b710a16e96b7c1dc03c0a5682a6c9bd51a38b18fae42",
      "transactionType": "CALL",
      "contractName": null,
      "contractAddress": "0x422b25c12aecdbdaf94cb16836b9c3fc0519eb40",
      "function": "uploadVideo(string,string,string)",
      "arguments": [
        "Big Buck Bunny - Open Movie",
        "QmYwAPJzv5CZsnA625s3Xf2nemtYgPpHdWEz79ojWnPbdG",
        "QmSgvgwxZGaBLqkGyWemEDqikCqU52XxsYLKtdy3vGZ8uq"
      ],
      "transaction": {
        "from": "0xfe2c7703feceb487abdbfdd8cc50403526d45b0d",
        "to": "0x422b25c12aecdbdaf94cb16836b9c3fc0519eb40",
        "gas": "0x504f8",
        "value": "0x0",
        "input": "0x4875e9fd000000000000000000000000000000000000000000000000000000000000006000000000000000000000000000000000000000000000000000000000000000a00000000000000000000000000000000000000000000000000000000000000100000000000000000000000000000000000000000000000000000000000000001b426967204275636b2042756e6e79202d204f70656e204d6f7669650000000000000000000000000000000000000000000000000000000000000000000000002e516d597741504a7a7635435a736e4136323573335866326e656d7459675070486457457a37396f6a576e50626447000000000000000000000000000000000000000000000000000000000000000000000000000000000000000000000000002e516d5367766777785a4761424c716b477957656d454471696b4371553532587873594c4b7464793376475a387571000000000000000000000000000000000000",
        "nonce": "0x18",
        "chainId": "0x14a34"
      },
      "additionalContracts": [],
      "isFixedGasLimit": false
    },
    {
      "hash": "0xee29a20398dcfd741e197061d5186fc205edd5d05826e175f8e1b910177e383c",
      "transactionType": "CALL",
      "contractName": null,
      "contractAddress": "0x422b25c12aecdbdaf94cb16836b9c3fc0519eb40",
      "function": "uploadVideo(string,string,string)",
      "arguments": [
        "Sintel - Open Movie Trailer",
        "QmQqzMTavQgT4f4T5v6PWBp7XNKtoPmC9jvn12WPT3gkSE",
        "Qmd286K6pohQcTKYqnS1YhWMscYjDyr712CGXDnUxAwzjg"
      ],
      "transaction": {
        "from": "0xfe2c7703feceb487abdbfdd8cc50403526d45b0d",
        "to": "0x422b25c12aecdbdaf94cb16836b9c3fc0519eb40",
        "gas": "0x504f8",
        "value": "0x0",
        "input": "0x4875e9fd000000000000000000000000000000000000000000000000000000000000006000000000000000000000000000000000000000000000000000000000000000a00000000000000000000000000000000000000000000000000000000000000100000000000000000000000000000000000000000000000000000000000000001b53696e74656c202d204f70656e204d6f76696520547261696c65720000000000000000000000000000000000000000000000000000000000000000000000002e516d51717a4d546176516754346634543576365057427037584e4b746f506d43396a766e313257505433676b5345000000000000000000000000000000000000000000000000000000000000000000000000000000000000000000000000002e516d643238364b36706f685163544b59716e53315968574d7363596a447972373132434758446e557841777a6a67000000000000000000000000000000000000",
        "nonce": "0x19",
        "chainId": "0x14a34"
      },
      "additionalContracts": [],
      "isFixedGasLimit": false
    }
  ],
  "receipts": [
    {
      "status": "0x1",
      "cumulativeGasUsed": "0x755edd",
      "logs": [
        {
          "address": "0x422b25c12aecdbdaf94cb16836b9c3fc0519eb40",
          "topics": [
            "0x914131121ce37b9b876b9e7ff21f008ec2799db04096a542b4b7e67f80af1d13",
            "0x0000000000000000000000000000000000000000000000000000000000000004",
            "0x000000000000000000000000fe2c7703feceb487abdbfdd8cc50403526d45b0d"
          ],
          "data": "0x0000000000000000000000000000000000000000000000000000000000000020000000000000000000000000000000000000000000000000000000000000001b426967204275636b2042756e6e79202d204f70656e204d6f7669650000000000",
          "blockHash": "0x1a13e80ddf9afd079053e615dc444c300bc224a318973a4240b13347da16f527",
          "blockNumber": "0x227e6d5",
          "blockTimestamp": "0x69632c8a",
          "transactionHash": "0xca2c987783a92b860853b710a16e96b7c1dc03c0a5682a6c9bd51a38b18fae42",
          "transactionIndex": "0xc",
          "logIndex": "0x1b",
          "removed": false
        }
      ],
      "logsBloom": "0x00000080000000000000000000000000020000000000000000000000000000000000000000000000000000000000000000000000000000000000000000000000000000000000010000000000000000000000000000000000000000000000000008000000000000000000000000000000000000000000000000000000000000800000000010000000400000000000000000000000000000000000000000000000000000000000000000000000000000000000000000000000002000000000000000000001000000000100000000000000000000008000000000000000040000000000000000000000000000000000000000000000000000000000000000000000",
      "type": "0x0",
      "transactionHash": "0xca2c987783a92b860853b710a16e96b7c1dc03c0a5682a6c9bd51a38b18fae42",
      "transactionIndex": "0xc",
      "blockHash": "0x1a13e80ddf9afd079053e615dc444c300bc224a318973a4240b13347da16f527",
      "blockNumber": "0x227e6d5",
      "gasUsed": "0x3a24c",
      "effectiveGasPrice": "0x124f80",
      "blobGasUsed": "0xe8c8",
      "from": "0xfe2c7703feceb487abdbfdd8cc50403526d45b0d",
      "to": "0x422b25c12aecdbdaf94cb16836b9c3fc0519eb40",
      "contractAddress": null,
      "daFootprintGasScalar": "0x138",
      "l1BaseFeeScalar": "0x44d",
      "l1BlobBaseFee": "0x975",
      "l1BlobBaseFeeScalar": "0xa118b",
      "l1Fee": "0x136bef",
      "l1GasPrice": "0x96cb",
      "l1GasUsed": "0xbfa"
    },
    {
      "status": "0x1",
      "cumulativeGasUsed": "0x790129",
      "logs": [
        {
          "address": "0x422b25c12aecdbdaf94cb16836b9c3fc0519eb40",
          "topics": [
            "0x914131121ce37b9b876b9e7ff21f008ec2799db04096a542b4b7e67f80af1d13",
            "0x0000000000000000000000000000000000000000000000000000000000000005",
            "0x000000000000000000000000fe2c7703feceb487abdbfdd8cc50403526d45b0d"
          ],
          "data": "0x0000000000000000000000000000000000000000000000000000000000000020000000000000000000000000000000000000000000000000000000000000001b53696e74656c202d204f70656e204d6f76696520547261696c65720000000000",
          "blockHash": "0x1a13e80ddf9afd079053e615dc444c300bc224a318973a4240b13347da16f527",
          "blockNumber": "0x227e6d5",
          "blockTimestamp": "0x69632c8a",
          "transactionHash": "0xee29a20398dcfd741e197061d5186fc205edd5d05826e175f8e1b910177e383c",
          "transactionIndex": "0xd",
          "logIndex": "0x1c",
          "removed": false
        }
      ],
      "logsBloom": "0x00000080000000000000000000000000020000000000000000000000000000000000000000000000000000000000000000000000000000000000000000000000000010000000010000000000000000000000000000000000000000000000000000000000000000000000000000000000000000000000000000000000000000800000000010000000400000000000001000000800000000000000000000000000000000000000000000000000000000000000000000000000000000000000000000000001000000000100000000000000000000000000000000000000040000000000000000000000000000000000000000000000000000000000000000000000",
      "type": "0x0",
      "transactionHash": "0xee29a20398dcfd741e197061d5186fc205edd5d05826e175f8e1b910177e383c",
      "transactionIndex": "0xd",
      "blockHash": "0x1a13e80ddf9afd079053e615dc444c300bc224a318973a4240b13347da16f527",
      "blockNumber": "0x227e6d5",
      "gasUsed": "0x3a24c",
      "effectiveGasPrice": "0x124f80",
      "blobGasUsed": "0xe8c8",
      "from": "0xfe2c7703feceb487abdbfdd8cc50403526d45b0d",
      "to": "0x422b25c12aecdbdaf94cb16836b9c3fc0519eb40",
      "contractAddress": null,
      "daFootprintGasScalar": "0x138",
      "l1BaseFeeScalar": "0x44d",
      "l1BlobBaseFee": "0x975",
      "l1BlobBaseFeeScalar": "0xa118b",
      "l1Fee": "0x136bef",
      "l1GasPrice": "0x96cb",
      "l1GasUsed": "0xbfa"
    }
  ],
  "libraries": [],
  "pending": [],
  "returns": {},
  "timestamp": 1768107145,
  "chain": 84532,
  "commit": "51e7c75"
}