{
  "transactions": [
    {
      "hash": "0x8804e27f2cec56666b46e30e51417be54b316f6776791ba6e6f8b7e2ca612e25",
      "transactionType": "CALL",
      "contractName": null,
      "contractAddress": "0x422b25c12aecdbdaf94cb16836b9c3fc0519eb40",
      "function": "registerChannel(string)",
      "arguments": [
        "Demo Channel"
      ],
      "transaction": {
        "from": "0xfe2c7703feceb487abdbfdd8cc50403526d45b0d",
        "to": "0x422b25c12aecdbdaf94cb16836b9c3fc0519eb40",
        "gas": "0x19391",
        "value": "0x0",
        "input": "0x2d58d0ee0000000000000000000000000000000000000000000000000000000000000020000000000000000000000000000000000000000000000000000000000000000c44656d6f204368616e6e656c0000000000000000000000000000000000000000",
        "nonce": "0xc",
        "chainId": "0x14a34"
      },
      "additionalContracts": [],
      "isFixedGasLimit": false
    },
    {
      "hash": "0x34f7c02e84c4d58b7f232f67999966866005f803e7fe1c83524add9d53860f9f",
      "transactionType": "CALL",
      "contractName": null,
      "contractAddress": "0x422b25c12aecdbdaf94cb16836b9c3fc0519eb40",
      "function": "uploadVideo(string,string,string)",
      "arguments": [
        "Base Sepolia Launch Party",
        "QmVideoCID1",
        "QmThumbnailCID1"
      ],
      "transaction": {
        "from": "0xfe2c7703feceb487abdbfdd8cc50403526d45b0d",
        "to": "0x422b25c12aecdbdaf94cb16836b9c3fc0519eb40",
        "gas": "0x37c6a",
        "value": "0x0",
        "input": "0x4875e9fd000000000000000000000000000000000000000000000000000000000000006000000000000000000000000000000000000000000000000000000000000000a000000000000000000000000000000000000000000000000000000000000000e0000000000000000000000000000000000000000000000000000000000000001942617365205365706f6c6961204c61756e636820506172747900000000000000000000000000000000000000000000000000000000000000000000000000000b516d566964656f43494431000000000000000000000000000000000000000000000000000000000000000000000000000000000000000000000000000000000f516d5468756d626e61696c434944310000000000000000000000000000000000",
        "nonce": "0xd",
        "chainId": "0x14a34"
      },
      "additionalContracts": [],
      "isFixedGasLimit": false
    },
    {
      "hash": "0xeaa536230f78b03170d349e4b825be35d2021849959a8d29849d396f045bae68",
      "transactionType": "CALL",
      "contractName": null,
      "contractAddress": "0x422b25c12aecdbdaf94cb16836b9c3fc0519eb40",
      "function": "uploadVideo(string,string,string)",
      "arguments": [
        "Building on Walrus",
        "QmVideoCID2",
        "QmThumbnailCID2"
      ],
      "transaction": {
        "from": "0xfe2c7703feceb487abdbfdd8cc50403526d45b0d",
        "to": "0x422b25c12aecdbdaf94cb16836b9c3fc0519eb40",
        "gas": "0x31fb2",
        "value": "0x0",
        "input": "0x4875e9fd000000000000000000000000000000000000000000000000000000000000006000000000000000000000000000000000000000000000000000000000000000a000000000000000000000000000000000000000000000000000000000000000e000000000000000000000000000000000000000000000000000000000000000124275696c64696e67206f6e2057616c7275730000000000000000000000000000000000000000000000000000000000000000000000000000000000000000000b516d566964656f43494432000000000000000000000000000000000000000000000000000000000000000000000000000000000000000000000000000000000f516d5468756d626e61696c434944320000000000000000000000000000000000",
        "nonce": "0xe",
        "chainId": "0x14a34"
      },
      "additionalContracts": [],
      "isFixedGasLimit": false
    }
  ],
  "receipts": [
    {
      "status": "0x1",
      "cumulativeGasUsed": "0x6f0138",
      "logs": [
        {
          "address": "0x422b25c12aecdbdaf94cb16836b9c3fc0519eb40",
          "topics": [
            "0x276ae62e19d992282d28a4512c2330337f38c431d6cb0a190266eb7899ffb14b",
            "0x000000000000000000000000fe2c7703feceb487abdbfdd8cc50403526d45b0d"
          ],
          "data": "0x0000000000000000000000000000000000000000000000000000000000000020000000000000000000000000000000000000000000000000000000000000000c44656d6f204368616e6e656c0000000000000000000000000000000000000000",
          "blockHash": "0x6d858a95a7df06dee1cffd62765a7dbc8a64efa9f73f686cbf22eb96fa9ba6bf",
          "blockNumber": "0x2270bcb",
          "blockTimestamp": "0x69617676",
          "transactionHash": "0x8804e27f2cec56666b46e30e51417be54b316f6776791ba6e6f8b7e2ca612e25",
          "transactionIndex": "0x19",
          "logIndex": "0x3f",
          "removed": false
        }
      ],
      "logsBloom": "0x00000080000000000000000000000000020000000000000200000000000000000000000000000000000000000000000000000000000000000000000000000001000000000000010000000000000000000000000000000000000000000000000000000000000000000000000000000000000000000000000000000000000000000000000010000000400000000000000000000000000000000000000000000000000000000000000000000000000000000000000000000000000000000000010000000000000000000000000000000000000000000000000000000000040000000000000000000000000000000000000000000000000000000000000000000000",
      "type": "0x2",
      "transactionHash": "0x8804e27f2cec56666b46e30e51417be54b316f6776791ba6e6f8b7e2ca612e25",
      "transactionIndex": "0x19",
      "blockHash": "0x6d858a95a7df06dee1cffd62765a7dbc8a64efa9f73f686cbf22eb96fa9ba6bf",
      "blockNumber": "0x2270bcb",
      "gasUsed": "0x113f2",
      "effectiveGasPrice": "0x124f80",
      "blobGasUsed": "0x79e0",
      "from": "0xfe2c7703feceb487abdbfdd8cc50403526d45b0d",
      "to": "0x422b25c12aecdbdaf94cb16836b9c3fc0519eb40",
      "contractAddress": null,
      "daFootprintGasScalar": "0x138",
      "l1BaseFeeScalar": "0x44d",
      "l1BlobBaseFee": "0x10e39e",
      "l1BlobBaseFeeScalar": "0xa118b",
      "l1Fee": "0x1f7681e4",
      "l1GasPrice": "0x1133446",
      "l1GasUsed": "0x640"
    },
    {
      "status": "0x1",
      "cumulativeGasUsed": "0x718750",
      "logs": [
        {
          "address": "0x422b25c12aecdbdaf94cb16836b9c3fc0519eb40",
          "topics": [
            "0x914131121ce37b9b876b9e7ff21f008ec2799db04096a542b4b7e67f80af1d13",
            "0x0000000000000000000000000000000000000000000000000000000000000000",
            "0x000000000000000000000000fe2c7703feceb487abdbfdd8cc50403526d45b0d"
          ],
          "data": "0x0000000000000000000000000000000000000000000000000000000000000020000000000000000000000000000000000000000000000000000000000000001942617365205365706f6c6961204c61756e636820506172747900000000000000",
          "blockHash": "0x6d858a95a7df06dee1cffd62765a7dbc8a64efa9f73f686cbf22eb96fa9ba6bf",
          "blockNumber": "0x2270bcb",
          "blockTimestamp": "0x69617676",
          "transactionHash": "0x34f7c02e84c4d58b7f232f67999966866005f803e7fe1c83524add9d53860f9f",
          "transactionIndex": "0x1a",
          "logIndex": "0x40",
          "removed": false
        }
      ],
      "logsBloom": "0x00000080000000000000000000000000020000000000000000000000000000000000000000000000000000000000000000000000000000000000000000000000000000000000010000000000000000000000000000000000000000000000000000000000020000000000000000000800000000000000000000000000000000800000000010000000400000000000000000000000000000000000000000000000000000000000000000000000000000000000000000000000000000000000000000000001000000000100000000000000000000000000000000000000040020000000000000000000000000000000000000000000000000000000000000000000",
      "type": "0x2",
      "transactionHash": "0x34f7c02e84c4d58b7f232f67999966866005f803e7fe1c83524add9d53860f9f",
      "transactionIndex": "0x1a",
      "blockHash": "0x6d858a95a7df06dee1cffd62765a7dbc8a64efa9f73f686cbf22eb96fa9ba6bf",
      "blockNumber": "0x2270bcb",
      "gasUsed": "0x28618",
      "effectiveGasPrice": "0x124f80",
      "blobGasUsed": "0xa5c0",
      "from": "0xfe2c7703feceb487abdbfdd8cc50403526d45b0d",
      "to": "0x422b25c12aecdbdaf94cb16836b9c3fc0519eb40",
      "contractAddress": null,
      "daFootprintGasScalar": "0x138",
      "l1BaseFeeScalar": "0x44d",
      "l1BlobBaseFee": "0x10e39e",
      "l1BlobBaseFeeScalar": "0xa118b",
      "l1Fee": "0x1f7681e4",
      "l1GasPrice": "0x1133446",
      "l1GasUsed": "0x886"
    },
    {
      "status": "0x1",
      "cumulativeGasUsed": "0x73ca48",
      "logs": [
        {
          "address": "0x422b25c12aecdbdaf94cb16836b9c3fc0519eb40",
          "topics": [
            "0x914131121ce37b9b876b9e7ff21f008ec2799db04096a542b4b7e67f80af1d13",
            "0x0000000000000000000000000000000000000000000000000000000000000001",
            "0x000000000000000000000000fe2c7703feceb487abdbfdd8cc50403526d45b0d"
          ],
          "data": "0x000000000000000000000000000000000000000000000000000000000000002000000000000000000000000000000000000000000000000000000000000000124275696c64696e67206f6e2057616c7275730000000000000000000000000000",
          "blockHash": "0x6d858a95a7df06dee1cffd62765a7dbc8a64efa9f73f686cbf22eb96fa9ba6bf",
          "blockNumber": "0x2270bcb",
          "blockTimestamp": "0x69617676",
          "transactionHash": "0xeaa536230f78b03170d349e4b825be35d2021849959a8d29849d396f045bae68",
          "transactionIndex": "0x1b",
          "logIndex": "0x41",
          "removed": false
        }
      ],
      "logsBloom": "0x00000080000000000000000000000000020000000000000000000000000000000000000000000000000000000000000000000000000000000000000000040000000000000000010000000000000000000000000000040000000000000000000000000000000000000000000000000000000000000000000000000000000000800000000010000000400000000000000000000000000000000000000000000000000000000000000000000000000000000000000000000000000000000000000000000001000000000100000000000000000000000000000000000000040040000000000000000000000000000000000000000000000000000000000000000000",
      "type": "0x2",
      "transactionHash": "0xeaa536230f78b03170d349e4b825be35d2021849959a8d29849d396f045bae68",
      "transactionIndex": "0x1b",
      "blockHash": "0x6d858a95a7df06dee1cffd62765a7dbc8a64efa9f73f686cbf22eb96fa9ba6bf",
      "blockNumber": "0x2270bcb",
      "gasUsed": "0x242f8",
      "effectiveGasPrice": "0x124f80",
      "blobGasUsed": "0x9e70",
      "from": "0xfe2c7703feceb487abdbfdd8cc50403526d45b0d",
      "to": "0x422b25c12aecdbdaf94cb16836b9c3fc0519eb40",
      "contractAddress": null,
      "daFootprintGasScalar": "0x138",
      "l1BaseFeeScalar": "0x44d",
      "l1BlobBaseFee": "0x10e39e",
      "l1BlobBaseFeeScalar": "0xa118b",
      "l1Fee": "0x1f7681e4",
      "l1GasPrice": "0x1133446",
      "l1GasUsed": "0x829"
    }
  ],
  "libraries": [],
  "pending": [],
  "returns": {},
  "timestamp": 1767994998,
  "chain": 84532,
  "commit": "51e7c75"
}